:020000040800F2
:1000000000200020ED0900080D0300081903000876
:100010002103000829030008310300080000000044
:10002000000000000000000000000000390300088C
:100030004503000800000000510300085D030008AC
:10004000310A0008310A0008310A0008310A0008A4
:10005000310A0008310A0008310A0008310A000894
:10006000310A0008310A0008310A0008310A000884
:10007000310A0008310A0008310A0008310A000874
:10008000310A0008310A0008310A0008310A000864
:10009000310A0008310A0008310A0008310A000854
:1000A000310A0008310A0008310A0008310A000844
:1000B000A9020008310A0008310A0008310A0008C4
:1000C000310A0008310A0008310A0008310A000824
:1000D000310A0008310A0008310A0008310A000814
:1000E000310A0008310A0008310A00080000000047
:1000F0000000000000000000000000000000000000
:0C01000000000000000000005FF808F1A3
:10010C0010402DE928409FE50030D4E5000053E372
:10011C000500001A1C309FE5000053E318009F15E2
:10012C0000F020130130A0E30030C4E51040BDE81E
:10013C001EFF2FE10400002000000000800B0008CF
:10014C001C309FE5000053E31EFF2F0110402DE9EA
:10015C0010109FE510009FE500F020E31040BDE873
:10016C001EFF2FE10000000008000020800B00089B
:10017C0080B582B000AF00F0F1F800F033F800F079
:10018C005BF80121144800F0C1FA0346002BF8D1AA
:10019C0000237B6002E07B6801337B607B68B3F5F6
:1001AC00FA6FF8D301210C4800F0B0FA0346002B8B
:1001BC00E7D10A4B1B78DBB2002BE2D14FF4805114
:1001CC00074800F0BCFA01214FF0804000F08CFB96
:1001DC00024B01221A70D4E70008014024000020D1
:1001EC00000C014080B582B000AF01210C2000F062
:1001FC00C3FA4FF48053BB801023FB710323BB71F4
:10020C003B1D19460A4800F0C5F94FF480510848C7
:10021C0000F0A3FA0123BB804823FB713B1D194658
:10022C00044800F0B7F900BF0837BD4680BD00BFD9
:10023C00000C01400008014080B584B000AF0121E2
:10024C00012000F0B7FA41F61F43BB8063233B81CA
:10025C0000237B810023FB803B1D19464FF080401F
:10026C0000F0C6FA1C233B7001237B700123BB708A
:10027C000123FB703B46184600F02AF901220121AC
:10028C004FF0804000F04FFB00214FF0804000F019
:10029C002BFB00BF1037BD4680BD000080B500AF02
:1002AC0001214FF0804000F061FB0346002B1FD072
:1002BC0001214FF0804000F082FB0E4B1B68013394
:1002CC000C4A13600B4B1B6841F2873293420FD9D7
:1002DC004FF48051084800F040FA00214FF0804064
:1002EC0000F002FB034B00221A60044B00221A7030
:1002FC0000BF80BD20000020000C01402400002025
:10030C0080B400AF00BFBD4680BC704780B400AF66
:10031C0000BFFDE780B400AF00BFFDE780B400AFC5
:10032C0000BFFDE780B400AF00BFFDE780B400AFB5
:10033C0000BFBD4680BC704780B400AF00BFBD4657
:10034C0080BC704780B400AF00BFBD4680BC704716
:10035C0080B400AF00BFBD4680BC704780B500AF15
:10036C00154B1B68144A43F001031360124B5A6877
:10037C001149124B13404B600F4B1B680E4A23F074
:10038C00847323F4803313600B4B1B680A4A23F4E9
:10039C0080231360084B5B68074A23F4FE03536009
:1003AC00054B4FF41F029A6000F00CF8044B4FF011
:1003BC0000629A6000BF80BD001002400000FFF890
:1003CC0000ED00E080B500AF00F002F800BF80BD8A
:1003DC0080B483B000AF00237B6000233B603A4BBA
:1003EC001B68394A43F480331360374B1B6803F4A2
:1003FC0000333B607B6801337B603B68002B03D18F
:10040C007B68B3F5A06FF0D12F4B1B6803F400335E
:10041C00002B02D001233B6001E000233B603B68D2
:10042C00012B4BD1294B1B68284A43F01003136056
:10043C00264B1B68254A23F007031360234B1B68CC
:10044C00224A43F0020313601F4B1F4A5B68536040
:10045C001D4B1D4A5B6853601B4B5B681A4A43F487
:10046C0080635360184B5B68174A23F47C1353600A
:10047C00154B5B68144A43F4E8135360124B1B682A
:10048C00114A43F08073136000BF0F4B1B6803F0DD
:10049C000073002BF9D00C4B5B680B4A23F0030361
:1004AC005360094B5B68084A43F00203536000BF7A
:1004BC00054B5B6803F00C03082BF9D100BF0C371C
:1004CC00BD4680BC704700BF0010024000200240B7
:1004DC0080B487B000AF786000237B6100233B6160
:1004EC000F23FB607B68DB78002B3AD0274BDB6853
:1004FC00DB431B0A03F007037B617B69C3F1040335
:10050C003B61FA687B6922FA03F3FB607B685B78DA
:10051C001A463B6902FA03F37B617B689B781A46A7
:10052C00FB6813407A6913437B617B691B017B6118
:10053C00174A7B681B787969C9B213440A4683F859
:10054C0000237B681B7803F01F0311497A6812782B
:10055C005209D2B21046012202FA03F341F82030BC
:10056C000FE07B681B7803F01F0309497A68127847
:10057C005209D2B2104601229A4000F1200341F8F0
:10058C00232000BF1C37BD4680BC704700ED00E047
:10059C0000E100E080B489B000AF786039600023DE
:1005AC00FB6100233B610023BB610023FB60002344
:1005BC007B610023BB603B68DB7803F00F03FB61BE
:1005CC003B68DB7803F01003002B05D03B689B786D
:1005DC001A46FB691343FB613B681B88DBB2002B9B
:1005EC0044D07B681B687B610023BB6138E001222F
:1005FC00BB6902FA03F3FB603B681B881A46FB6875
:10060C0013403B613A69FB689A4226D1BB699B0057
:10061C00FB600F22FB6802FA03F3BB60BB68DB4391
:10062C007A6913407B61FA69FB6802FA03F37A6911
:10063C0013437B613B68DB78282B05D10122BB6916
:10064C009A407B685A6108E03B68DB78482B04D100
:10065C000122BB699A407B681A61BB690133BB619B
:10066C00BB69072BC3D97B687A691A603B681B8806
:10067C00FF2B46D97B685B687B610023BB613AE04A
:10068C00BB690833012202FA03F3FB603B681B8849
:10069C001A46FB6813403B613A69FB689A4227D1C2
:1006AC00BB699B00FB600F22FB6802FA03F3BB6083
:1006BC00BB68DB437A6913407B61FA69FB6802FA19
:1006CC0003F37A6913437B613B68DB78282B05D1F4
:1006DC00BB69083301229A407B685A613B68DB781E
:1006EC00482B05D1BB69083301229A407B681A61FB
:1006FC00BB690133BB61BB69072BC1D97B687A69C4
:10070C005A6000BF2437BD4680BC704780B485B0AA
:10071C0000AF78600B467B800023FB737B689A6884
:10072C007B881340002B02D00123FB7301E00023D4
:10073C00FB73FB7B18461437BD4680BC704780B4F6
:10074C0083B000AF78600B467B807A887B681A6137
:10075C0000BF0C37BD4680BC704780B483B000AF7F
:10076C0078600B467B807A887B685A6100BF0C37B7
:10077C00BD4680BC7047000080B483B000AF786089
:10078C000B46FB70FB78002B06D0094B9A69084985
:10079C007B6813438B6106E0054B9A697B68DB43EE
:1007AC00034913408B6100BF0C37BD4680BC7047BA
:1007BC000010024080B483B000AF78600B46FB7031
:1007CC00FB78002B06D0094BDA6908497B68134388
:1007DC00CB6106E0054BDA697B68DB4303491340C8
:1007EC00CB6100BF0C37BD4680BC70470010024087
:1007FC0080B485B000AF786039600023FB817B68E2
:10080C001B88FB817B682E4A934213D07B682D4A50
:10081C0093420FD07B68B3F1804F0BD07B682A4A90
:10082C00934207D07B68294A934203D07B68284ABD
:10083C00934208D1FB8923F07003FB813B685A88F3
:10084C00FB891343FB817B68224A93420CD07B6863
:10085C00214A934208D0FB8923F44073FB813B6807
:10086C00DA88FB891343FB817B68FA891A803B6821
:10087C009A887B689A853B681A887B681A857B689E
:10088C000F4A93420FD07B680E4A93420BD07B6881
:10089C00124A934207D07B68114A934203D07B687B
:1008AC00104A934204D13B681B7A1A467B681A861D
:1008BC007B6801229A8200BF1437BD4680BC70470A
:1008CC00002C0140003401400004004000080040AE
:1008DC00000C00400010004000140040004001409B
:1008EC00004401400048014080B483B000AF786000
:1008FC000B46FB70FB78002B08D07B681B889BB2E7
:10090C0043F001039AB27B681A8007E07B681B886E
:10091C009BB223F001039AB27B681A8000BF0C379C
:10092C00BD4680BC704780B483B000AF78600B4686
:10093C007B8013467B707B78002B08D07B689B896F
:10094C009AB27B8813439AB27B689A8109E07B68E0
:10095C009B899AB27B88DB439BB213409AB27B682B
:10096C009A8100BF0C37BD4680BC704780B485B0FF
:10097C0000AF78600B467B800023FB730023BB81A8
:10098C0000237B817B681B8A9AB27B881340BB81D6
:10099C007B689B899AB27B8813407B81BB89002B37
:1009AC0005D07B89002B02D00123FB7301E00023CF
:1009BC00FB73FB7B18461437BD4680BC704780B474
:1009CC0083B000AF78600B467B807B88DB439AB2A8
:1009DC007B681A8200BF0C37BD4680BC7047000094
:1009EC00002103E00A4B5B584350043109480A4B81
:1009FC0042189A42F6D3094A02E0002342F8043B1B
:100A0C00074B9A42F9D3FFF7A9FCFFF7B1FB7047EC
:100A1C00BC0B000800000020040000200400002093
:100A2C00C0010020FEE700000030A0E310402DE9DB
:100A3C000010A0E10320A0E10300A0E1140000EBF2
:100A4C001040BDE81EFF2FE170402DE930509FE5AE
:100A5C0030409FE5044045E04441B0E10500000A08
:100A6C00043035E5014044E20FE0A0E113FF2FE133
:100A7C00000054E3F9FFFF1A430000EB7040BDE89F
:100A8C001EFF2FE1BC0B0008B80B00081EFF2FE166
:100A9C001EFF2FE1F0412DE9A0809FE50040A0E171
:100AAC00000098E50360A0E10150A0E10270A0E114
:100ABC00F5FFFFEB88309FE500C093E500005CE399
:100ACC0080C09F0504E09CE500C083051F005EE329
:100ADC00000098E5160000CA000054E30700001A55
:100AEC0001308EE202E08EE204308CE50E518CE790
:100AFC00E6FFFFEB0000A0E3F041BDE81EFF2FE195
:100B0C000130A0E30E118CE0887081E588219CE512
:100B1C00133EA0E1032082E188218CE5086181E588
:100B2C00020054E38C219C05033082018C318C052E
:100B3C00EAFFFFEAD5FFFFEB0000E0E3EDFFFFEA81
:100B4C0000000020BC0100202C00002018309FE584
:100B5C00000053E31EFF2F0110402DE90C009FE510
:100B6C00B0FFFFEB1040BDE81EFF2FE100000000BE
:100B7C00540A00080DC0A0E1F8DF2DE904B04CE2E6
:100B8C0028D04BE2F06F9DE81EFF2FE10DC0A0E1D5
:100B9C00F8DF2DE904B04CE228D04BE2F06F9DE871
:040BAC001EFF2FE118
:080BB000580B00084C0100087D
:040BB8000C01000824
:040BBC0028000020ED
:04000005080009EDF9
:00000001FF
