:020000040800F2
:10000000002000200D1800083905000845050008EB
:100010004D050008550500085D05000800000000BA
:10002000000000000000000000000000650500085E
:1000300071050008000000007D0500088905000822
:1000400051180008511800085118000851180008EC
:1000500051180008511800085118000851180008DC
:1000600051180008511800085118000851180008CC
:1000700051180008511800085118000851180008BC
:1000800051180008511800085118000851180008AC
:10009000511800085118000851180008511800089C
:1000A000511800085118000851180008511800088C
:1000B000C916000851180008511800085118000806
:1000C000511800085118000851180008511800086C
:1000D00051180008051500085118000851180008AB
:1000E00051180008511800085118000800000000BD
:1000F0000000000000000000000000000000000000
:0C01000000000000000000005FF808F1A3
:10010C0010402DE928409FE50030D4E5000053E372
:10011C000500001A1C309FE5000053E318009F15E2
:10012C0000F020130130A0E30030C4E51040BDE81E
:10013C001EFF2FE150000020000000000C200008E2
:10014C001C309FE5000053E31EFF2F0110402DE9EA
:10015C0010109FE510009FE500F020E31040BDE873
:10016C001EFF2FE100000000540000200C200008AE
:10017C0080B485B000AF786039600023FB730EE06B
:10018C00FB7B3A6813441A78FB7B79680B441B7829
:10019C009A4201D0012306E0FB7B0133FB73FB7B0E
:1001AC00052BEDD9002318461437BD4680BC70478B
:1001BC0080B489B000AF03463A60FB710B46BB714B
:1001CC00FB792B4AD35C1BB21B021AB2BB792849B0
:1001DC00CB5C1BB213431BB2FB83FB8B002B07D1F5
:1001EC003B6830221A703B68013300221A703BE0E6
:1001FC000023BB611AE0FA8B1E4BA3FB0213D90838
:10020C000B469B000B445B00D31A9BB2DAB2BB6962
:10021C00591CB9613032D2B220333B4403F8142C50
:10022C00FB8B144AA2FB0323DB08FB83FB8B002B09
:10023C00E1D100237B610EE0BA697B69D31A5A1EA7
:10024C007B6939680B4420323A4412F8142C1A702A
:10025C007B6901337B617A69BB699A42ECDBBB69D0
:10026C003A68134400221A702437BD4680BC70478C
:10027C006C000020CDCCCCCC80B582B000AF01217D
:10028C00082000F03FFCC023BB800423FB71032338
:10029C00BB713B1D1946034800F092FA00BF0837AA
:1002AC00BD4680BD000C014080B483B000AF7860C7
:1002BC007B68052B26D801A252F823F0E102000836
:1002CC00E9020008F1020008F90200080103000825
:1002DC00090300080E4B06221A7013E00C4B052282
:1002EC001A700FE00A4B04221A700BE0084B032221
:1002FC001A7007E0064B02221A7003E0044B01222D
:10030C001A7000BF00BF0C37BD4680BC704700BFE1
:10031C00AA00002080B582B000AFFFF7ADFF01F05E
:10032C0097F901F0CBF901F082F801F05FF94FF485
:10033C00165001F009F9192000F0D4FE00F0D7FF97
:10034C006D4B00221A7012E0FB796C4A3021D154AB
:10035C00FB796B4A3021D154FB796A4A3021D15454
:10036C00FB79694A3021D154FB790133FB71FB795C
:10037C00052BE9D9604B1B78032B00F0B680032BBF
:10038C0000F39A80012B03D0022B00F0B08093E095
:10039C005A4A01210020FFF70BFF5A4A0321022081
:1003AC00FFF706FF55495648FFF7E2FE0346012BBF
:1003BC0040F09F80514B1B781A460421032000F01B
:1003CC00B9FF4E4B5B781A460521032000F0B2FFB3
:1003DC004A4B9B781A460621032000F0ABFF2E22D5
:1003EC000721032000F0A6FF444BDB781A460821B6
:1003FC00032000F09FFF414B1B791A460921032073
:10040C0000F098FF3F4B1B781A460421042000F0A3
:10041C0091FF2E220521042000F08CFF394B5B78D4
:10042C001A460621042000F085FF364B9B781A46AD
:10043C000721042000F07EFF324BDB781A4608219E
:10044C00042000F077FF2F4B1B791A46092104205A
:10045C0000F070FF00F04BFF2C4A0121022000F04D
:10046C00C1FF2B4A0321022000F0BCFF294A0121C5
:10047C00032000F0B7FF284A0121042000F0B2FF4E
:10048C0000233B6014E01D4A3B68134419781C4A56
:10049C003B6813440A461A701A4A3B68134419788D
:1004AC00194A3B6813440A461A703B6801333B6097
:1004BC003B68052BE7DD1CE0184A0121012000F008
:1004CC0091FF174A0121022000F08CFF154A0121EF
:1004DC00032000F087FF144A0121042000F082FF62
:1004EC004FF4FA7000F0FEFD44E700BF42E700BF96
:1004FC0040E700BF3EE700BFAA0000208C000020B0
:10050C00940000209C000020A4000020A0190008EA
:10051C00A4190008B0190008B4190008B81900088B
:10052C00CC190008E0190008F419000880B400AFD9
:10053C0000BFBD4680BC704780B400AF00BFFDE774
:10054C0080B400AF00BFFDE780B400AF00BFFDE793
:10055C0080B400AF00BFFDE780B400AF00BFBD4664
:10056C0080BC704780B400AF00BFBD4680BC7047F4
:10057C0080B400AF00BFBD4680BC704780B400AFF4
:10058C0000BFBD4680BC704780B500AF154B1B68E3
:10059C00144A43F001031360124B5A681149124B71
:1005AC0013404B600F4B1B680E4A23F0847323F4EB
:1005BC00803313600B4B1B680A4A23F480231360AF
:1005CC00084B5B68074A23F4FE035360054B4FF45A
:1005DC001F029A6000F00CF8044B4FF000629A6016
:1005EC0000BF80BD001002400000FFF800ED00E0ED
:1005FC0080B500AF00F002F800BF80BD80B483B0BE
:10060C0000AF00237B6000233B603A4B1B68394AE8
:10061C0043F480331360374B1B6803F400333B60A7
:10062C007B6801337B603B68002B03D17B68B3F59F
:10063C00A06FF0D12F4B1B6803F40033002B02D0BA
:10064C0001233B6001E000233B603B68012B4BD155
:10065C00294B1B68284A43F010031360264B1B6878
:10066C00254A23F007031360234B1B68224A43F0EF
:10067C00020313601F4B1F4A5B6853601D4B1D4ADE
:10068C005B6853601B4B5B681A4A43F4806353608E
:10069C00184B5B68174A23F47C135360154B5B684B
:1006AC00144A43F4E8135360124B1B68114A43F08D
:1006BC008073136000BF0F4B1B6803F00073002B9B
:1006CC00F9D00C4B5B680B4A23F003035360094BC6
:1006DC005B68084A43F00203536000BF054B5B683C
:1006EC0003F00C03082BF9D100BF0C37BD4680BCBE
:1006FC00704700BF001002400020024080B487B059
:10070C0000AF786000237B6100233B610F23FB600B
:10071C007B68DB78002B3AD0274BDB68DB431B0A6A
:10072C0003F007037B617B69C3F104033B61FA6847
:10073C007B6922FA03F3FB607B685B781A463B69A2
:10074C0002FA03F37B617B689B781A46FB681340C3
:10075C007A6913437B617B691B017B61174A7B6858
:10076C001B787969C9B213440A4683F800237B6865
:10077C001B7803F01F0311497A6812785209D2B220
:10078C001046012202FA03F341F820300FE07B6897
:10079C001B7803F01F0309497A6812785209D2B208
:1007AC00104601229A4000F1200341F8232000BF9B
:1007BC001C37BD4680BC704700ED00E000E100E056
:1007CC0080B489B000AF786039600023FB610023EE
:1007DC003B610023BB610023FB6000237B61002392
:1007EC00BB603B68DB7803F00F03FB613B68DB7895
:1007FC0003F01003002B05D03B689B781A46FB696D
:10080C001343FB613B681B88DBB2002B44D07B6835
:10081C001B687B610023BB6138E00122BB6902FAD3
:10082C0003F3FB603B681B881A46FB6813403B6173
:10083C003A69FB689A4226D1BB699B00FB600F2288
:10084C00FB6802FA03F3BB60BB68DB437A691340B5
:10085C007B61FA69FB6802FA03F37A6913437B61E3
:10086C003B68DB78282B05D10122BB699A407B6859
:10087C005A6108E03B68DB78482B04D10122BB6944
:10088C009A407B681A61BB690133BB61BB69072B5A
:10089C00C3D97B687A691A603B681B88FF2B46D9E1
:1008AC007B685B687B610023BB613AE0BB69083302
:1008BC00012202FA03F3FB603B681B881A46FB68B3
:1008CC0013403B613A69FB689A4227D1BB699B0094
:1008DC00FB600F22FB6802FA03F3BB60BB68DB43CF
:1008EC007A6913407B61FA69FB6802FA03F37A694F
:1008FC0013437B613B68DB78282B05D1BB6908333C
:10090C0001229A407B685A613B68DB78482B05D101
:10091C00BB69083301229A407B681A61BB690133B9
:10092C00BB61BB69072BC1D97B687A695A6000BF70
:10093C002437BD4680BC704780B485B000AF78606A
:10094C000B467B800023FB737B689A687B88134083
:10095C00002B02D00123FB7301E00023FB73FB7B14
:10096C0018461437BD4680BC704780B483B000AFC6
:10097C0078600B467B8013467B707B78002B03D012
:10098C007A887B681A6102E07A887B685A6100BFBA
:10099C000C37BD4680BC704780B487B000AF786020
:1009AC0000237B6100233B610023FB600023BB60C1
:1009BC004F4B5B6803F00C037B617B69082B11D0F8
:1009CC007B69082B3AD87B69002B03D07B69042BFD
:1009DC0004D033E07B68474A1A6033E07B68454AB1
:1009EC001A602FE0424B5B6803F470133B61404B81
:1009FC005B6803F48033FB603B699B0C02333B6107
:100A0C00FB68002B06D13B693B4A03FB02F27B6877
:100A1C001A6017E0364B5B6803F40033002B06D0EA
:100A2C003B69354A03FB02F27B681A600AE03B69BA
:100A3C00304A03FB02F27B681A6003E07B682D4AA4
:100A4C001A6000BF2A4B5B6803F0F0037B617B6983
:100A5C001B097B61294A7B6913441B78DBB2BB60A1
:100A6C007B681A68BB68DA407B685A60204B5B680D
:100A7C0003F4E0637B617B691B0A7B611F4A7B6922
:100A8C0013441B78DBB2BB607B685A68BB68DA40E6
:100A9C007B689A60164B5B6803F460537B617B69DF
:100AAC00DB0A7B61154A7B6913441B78DBB2BB60A4
:100ABC007B685A68BB68DA407B68DA600C4B5B6811
:100ACC0003F440437B617B699B0B7B610C4A7B6924
:100ADC0013441B78DBB2BB607B68DA68BB68B2FB83
:100AEC00F3F27B681A6100BF1C37BD4680BC7047AF
:100AFC000010024000127A0000093D00081A00089C
:100B0C00181A000880B483B000AF78600B46FB70F5
:100B1C00FB78002B06D0094B9A6908497B68134374
:100B2C008B6106E0054B9A697B68DB4303491340F4
:100B3C008B6100BF0C37BD4680BC70470010024073
:100B4C0080B483B000AF78600B46FB70FB78002B51
:100B5C0006D0094BDA6908497B681343CB6106E080
:100B6C00054BDA697B68DB4303491340CB6100BF5B
:100B7C000C37BD4680BC70470010024080B485B075
:100B8C0000AF786039600023FB817B681B88FB8198
:100B9C007B682E4A934213D07B682D4A93420FD028
:100BAC007B68B3F1804F0BD07B682A4A934207D005
:100BBC007B68294A934203D07B68284A934208D128
:100BCC00FB8923F07003FB813B685A88FB89134334
:100BDC00FB817B68224A93420CD07B68214A93426A
:100BEC0008D0FB8923F44073FB813B68DA88FB89CE
:100BFC001343FB817B68FA891A803B689A887B686F
:100C0C009A853B681A887B681A857B680F4A9342E1
:100C1C000FD07B680E4A93420BD07B68124A9342EA
:100C2C0007D07B68114A934203D07B68104A9342E9
:100C3C0004D13B681B7A1A467B681A867B680122B2
:100C4C009A8200BF1437BD4680BC7047002C01400F
:100C5C00003401400004004000080040000C00403B
:100C6C0000100040001400400040014000440140CE
:100C7C000048014080B483B000AF78600B46FB7035
:100C8C00FB78002B08D07B681B889BB243F00103D8
:100C9C009AB27B681A8007E07B681B889BB223F0B2
:100CAC0001039AB27B681A8000BF0C37BD4680BC2A
:100CBC00704780B483B000AF78600B467B801346DE
:100CCC007B707B78002B08D07B689B899AB27B88E1
:100CDC0013439AB27B689A8109E07B689B899AB22C
:100CEC007B88DB439BB213409AB27B689A8100BF2E
:100CFC000C37BD4680BC704780B483B000AF7860C1
:100D0C000B467B807B88DB439AB27B681A8200BFE0
:100D1C000C37BD4680BC704780B485B000AF78609E
:100D2C000B467B800023FB730023BB8100237B815C
:100D3C007B681B8A9AB27B881340BB817B689B893A
:100D4C009AB27B8813407B81BB89002B05D07B89B1
:100D5C00002B02D00123FB7301E00023FB73FB7B10
:100D6C0018461437BD4680BC704780B483B000AFC2
:100D7C0078600B467B807B88DB439AB27B681A8257
:100D8C0000BF0C37BD4680BC7047000080B58CB0EE
:100D9C0000AF786039600023FB620023BB62002344
:100DAC007B6200233B620023FB617B68FB617B68F9
:100DBC001B8A9BB2FB62FA6A4CF6FF731340FB6210
:100DCC003B68DB881A46FB6A1343FB62FB6A9AB2E8
:100DDC007B681A827B689B899BB2FB62FA6A4EF62F
:100DEC00F3131340FB623B689A883B681B891343DF
:100DFC009AB23B685B8913439BB21A46FB6A134356
:100E0C00FB62FB6A9AB27B689A817B689B8A9BB275
:100E1C00FB62FA6A4FF6FF431340FB623B689B8907
:100E2C001A46FB6A1343FB62FB6A9AB27B689A828E
:100E3C0007F108031846FFF7AFFDFB692E4A9342F2
:100E4C0002D17B69BB6201E03B69BB627B689B8919
:100E5C009BB21BB2002B0CDABA6A13469B001344EC
:100E6C009A001A443B681B685B00B2FBF3F37B628D
:100E7C000BE0BA6A13469B0013449A001A443B6871
:100E8C001B689B00B2FBF3F37B627B6A1B4AA2FBE1
:100E9C0003235B091B01FB62FB6A1B09642202FB37
:100EAC0003F37A6AD31A3B627B689B899BB21BB2B1
:100EBC00002B0CDA3B6ADB003233104AA2FB032313
:100ECC005B0903F00703FA6A1343FB620BE03B6A0E
:100EDC001B013233094AA2FB03235B0903F00F0306
:100EEC00FA6A1343FB62FB6A9AB27B681A8100BFF1
:100EFC003037BD4680BD00BF003801401F85EB5127
:100F0C0080B483B000AF78600B46FB70FB78002B8D
:100F1C0008D07B689B899BB243F400539AB27B68E0
:100F2C009A8107E07B689B899BB223F400539AB2A9
:100F3C007B689A8100BF0C37BD4680BC704780B47B
:100F4C0087B000AF78600B467B8013467B70002324
:100F5C003B610023FB600023BB6000237B617B684B
:100F6C007B617B88DBB25B09DBB23B617B8803F086
:100F7C001F03FB600122FB6802FA03F3BB603B69B1
:100F8C00012B03D17B690C337B6109E03B69022B9C
:100F9C0003D17B6910337B6102E07B6914337B6185
:100FAC007B78002B06D07B6919687B69BA680A4389
:100FBC001A6006E07B691968BB68DA437B690A40F2
:100FCC001A6000BF1C37BD4680BC704780B483B02C
:100FDC0000AF78607B689B889BB2C3F308039BB21D
:100FEC0018460C37BD4680BC704780B487B000AF44
:100FFC0078600B467B800023FB6000237B61002321
:10100C00BB600023FB747B88DBB25B09DBB2BB608B
:10101C007B8803F01F037B6101227B6902FA03F3D7
:10102C007B61BB68012B07D17B689B899BB21A46FD
:10103C007B6913407B6111E0BB68022B07D17B6895
:10104C001B8A9BB21A467B6913407B6106E07B6866
:10105C009B8A9BB21A467B6913407B617B881B0A77
:10106C009BB2FB600122FB6802FA03F3FB607B6816
:10107C001B889BB21A46FB681340FB607B69002BF4
:10108C0005D0FB68002B02D00123FB7401E0002388
:10109C00FB74FB7C18461C37BD4680BC70470000B7
:1010AC0080B483B000AF78600D497A681346DB00DA
:1010BC001344DB004B600A4B00229A60084B05225C
:1010CC001A6000BF064B1B6803F48033002BF9D069
:1010DC00034B04221A6000BF0C37BD4680BC70471E
:1010EC0010E000E080B582B000AF786003E04FF410
:1010FC007A70FFF7D5FF7B685A1E7A60002BF6D109
:10110C0000BF00BF0837BD4680BD000080B582B06F
:10111C0000AF01210820FFF7F5FC1423FB7103231A
:10112C00BB714FF48073BB803B1D19460D48FFF714
:10113C0047FB4FF40073BB803B1D19460948FFF772
:10114C003FFB01224FF480710648FFF70EFC012291
:10115C004FF400710348FFF708FC00BF0837BD4689
:10116C0080BD00BF000C014080B500AF01224FF4E0
:10117C0000710B48FFF7F9FB01224FF4807108480E
:10118C00FFF7F3FB00224FF400710548FFF7EDFB6E
:10119C0000224FF480710248FFF7E7FB00BF80BDCF
:1011AC00000C014080B500AF00224FF400710848DC
:1011BC00FFF7DBFB01224FF480710548FFF7D5FBED
:1011CC0001224FF400710248FFF7CFFB00BF80BD36
:1011DC00000C014080B584B000AF0346FB710023C6
:1011EC00FB731EE0FB7B802242FA03F35AB297F9A1
:1011FC00073013405BB2DBB21A464FF40071124851
:10120C00FFF7B3FB01224FF480710F48FFF7ADFBE2
:10121C0000224FF480710C48FFF7A7FBFB7B0133D6
:10122C00FB73FB7B072BDDD901224FF48071064841
:10123C00FFF79BFB00224FF480710348FFF795FBEF
:10124C0000BF1037BD4680BD000C014080B582B098
:10125C0000AF0346FB71FFF787FF7820FFF7BAFF5B
:10126C000020FFF7B7FFFB791846FFF7B3FFFFF736
:10127C0099FF00BF0837BD4680BD80B582B000AF76
:10128C000346FB71FFF770FF7820FFF7A3FF4020A8
:10129C00FFF7A0FFFB791846FFF79CFFFFF782FFD3
:1012AC0000BF0837BD4680BD80B582B000AF034695
:1012BC000A46FB711346BB71FB7963F04F03DBB23B
:1012CC001846FFF7C3FFBB791B09DBB243F01003D1
:1012DC00DBB21846FFF7BAFFBB7903F00F03DBB2A2
:1012EC001846FFF7B3FF00BF0837BD4680BD80B579
:1012FC0082B000AF0023BB7114E0BB79002118460B
:10130C00FFF7D2FF0023FB7105E00020FFF7B5FFCC
:10131C00FB790133FB7197F90730002BF5DABB79B8
:10132C000133BB71BB79072BE7D900BF00BF08376E
:10133C00BD4680BD80B584B000AF0346FB710B4643
:10134C00BB7113467B71FB79013BDBB25B00DAB2FC
:10135C00BB79013BDBB2DB00DBB219461046FFF771
:10136C00A3FF0023FB730EE07B79A3F12002FB7B30
:10137C001B4912010A4413441B781846FFF77DFFE2
:10138C00FB7B0133FB73FB7B072BEDD9FB795B00FC
:10139C00DBB2013BDAB2BB79013BDBB2DB00DBB287
:1013AC0019461046FFF780FF0023FB730FE07B7993
:1013BC00A3F12002FB7B0833094912010A441344B0
:1013CC001B781846FFF759FFFB7B0133FB73FB7B44
:1013DC00072BECD900BF00BF1037BD4680BD00BF46
:1013EC001C1A000880B584B000AF03463A60FB714C
:1013FC000B46BB710023FB730EE0BA79FB7B1344E5
:10140C00D9B2FB7B3A6813441A78FB791846FFF77C
:10141C0091FFFB7B0133FB73FB7B3A6813441B7816
:10142C00002BEAD100BF00BF1037BD4680BD80B590
:10143C0082B000AF00237B600CE000233B6002E035
:10144C003B6801333B603B68B3F57A7FF8D37B682C
:10145C0001337B607B68B3F57A7FEED3FFF756FEE2
:10146C00AE20FFF7F3FED520FFF7F0FE8020FFF74C
:10147C00EDFEA820FFF7EAFE3F20FFF7E7FED320A2
:10148C00FFF7E4FE0020FFF7E1FE4020FFF7DEFE51
:10149C00A120FFF7DBFEC820FFF7D8FEDA20FFF70C
:1014AC00D5FE1220FFF7D2FE8120FFF7CFFECF2012
:1014BC00FFF7CCFED920FFF7C9FEF120FFF7C6FEDF
:1014CC00DB20FFF7C3FE3020FFF7C0FEA420FFF7A0
:1014DC00BDFEA620FFF7BAFE8D20FFF7B7FE142045
:1014EC00FFF7B4FEAF20FFF7B1FEFFF700FF00BF20
:1014FC000837BD4680BD000080B500AF40F22551D5
:10150C000E48FFF772FD0346002B15D00B48FFF772
:10151C005DFD034618460A4B1B785A1CD1B2084A8B
:10152C0011701A46C1B2074B9954054B1B781F2BEF
:10153C0002D9034B00221A7000BF80BD0038014055
:10154C00AB0000206C00002080B588B000AF786044
:10155C00012144F20400FFF7D5FA4FF40073BB836A
:10156C001823FB770323BB7707F11C0319461D488F
:10157C00FFF726F94FF48063BB830423FB7707F155
:10158C001C0319461748FFF71BF97B68FB60002307
:10159C003B8200237B820023BB820C23FB82002333
:1015AC003B8307F10C0319460F48FFF7EFFB0122B1
:1015BC0040F225510C48FFF7C2FC01210A48FFF705
:1015CC009FFC25233B7200237B720023BB720123FB
:1015DC00FB7207F108031846FFF790F800BF20379D
:1015EC00BD4680BD000801400038014080B582B086
:1015FC0000AF01210C20FFF785FA2823FB70022392
:10160C00BB7000237B6019E010497A6813465B00BD
:10161C0013449B000B4404331B883B800B497A68B2
:10162C0013465B0013449B000B441B683A4611465F
:10163C001846FFF7C5F87B6801337B607B68052B88
:10164C00E2DD00BF00BF0837BD4680BD04000020AE
:10165C0080B584B000AF01210120FFF771FA40F290
:10166C00CF733B814723BB8000237B810023FB800E
:10167C003B1D19464FF08040FFF780FA01214FF0D7
:10168C008040FFF739FB012201214FF08040FFF72A
:10169C0010FB1C233B7000237B700123BB700123C8
:1016AC00FB703B461846FFF729F801214FF08040AC
:1016BC00FFF7E0FA00BF1037BD4680BD80B582B0A1
:1016CC0000AF01214FF08040FFF726FB0346002BB3
:1016DC0000F08E8001214FF08040FFF746FB002385
:1016EC007B6081E044497A6813465B0013449B009D
:1016FC000B44186840497A6813465B0013449B00FE
:10170C000B4404331B881946FFF716F90346FB708C
:10171C0039497A6813465B0013449B000B4407332A
:10172C001B78FA789A4214D033497A6813465B00D6
:10173C0013449B000B440733FA781A702E497A68CD
:10174C0013465B0013449B000B4408330A221A70A7
:10175C0047E029497A6813465B0013449B000B440D
:10176C0008331B78002B3CD023497A6813465B0066
:10177C0013449B000B4408331B78013BD8B21E4921
:10178C007A6813465B0013449B000B4408330246F3
:10179C001A7019497A6813465B0013449B000B447A
:1017AC0008331B78002B1CD113497A6813465B0055
:1017BC0013449B000B4406331B78FA789A4210D0E2
:1017CC000D497A6813465B0013449B000B440633A7
:1017DC00FA781A70FB78002B03D1084B1B687868D9
:1017EC0098477B6801337B607B68052B7FF77AAF6A
:1017FC0000BF0837BD4680BD04000020000000205B
:10180C00002103E00A4B5B584350043109480A4B52
:10181C0042189A42F6D3094A02E0002342F8043BEC
:10182C00074B9A42F9D3FEF7AFFEFEF773FD7047F4
:10183C00482000080000002050000020500000202C
:10184C0044020020FEE700000030A0E310402DE928
:10185C000010A0E10320A0E10300A0E1140000EBC4
:10186C001040BDE81EFF2FE170402DE930509FE580
:10187C0030409FE5044045E04441B0E10500000ADA
:10188C00043035E5014044E20FE0A0E113FF2FE105
:10189C00000054E3F9FFFF1ADE0100EB7040BDE8D5
:1018AC001EFF2FE148200008442000081EFF2FE1F6
:1018BC001EFF2FE1F0412DE9A0809FE50040A0E143
:1018CC00000098E50360A0E10150A0E10270A0E1E6
:1018DC00F5FFFFEB88309FE500C093E500005CE36B
:1018EC0080C09F0504E09CE500C083051F005EE3FB
:1018FC00000098E5160000CA000054E30700001A27
:10190C0001308EE202E08EE204308CE50E518CE761
:10191C00E6FFFFEB0000A0E3F041BDE81EFF2FE166
:10192C000130A0E30E118CE0887081E588219CE5E4
:10193C00133EA0E1032082E188218CE5086181E55A
:10194C00020054E38C219C05033082018C318C0500
:10195C00EAFFFFEAD5FFFFEB0000E0E3EDFFFFEA53
:10196C004C00002040020020B000002018309FE501
:10197C00000053E31EFF2F0110402DE90C009FE5E2
:10198C00B0FFFFEB1040BDE81EFF2FE10000000090
:10199C0074180008463A000035302E303220487A50
:1019AC00000000004C563A004C433A0070726573CC
:1019BC0073204120746F2053544152540000000096
:1019CC00202067726F75704D656D6265723A2020CC
:1019DC00000000002020425A4A2020444C5720206E
:1019EC0048435A200000000020202046726F6D20D2
:1019FC00205758495420202000000000000000000F
:101A0C000102030401020304060708090204060884
:101A1C0000000000000000000000000000000000BA
:101A2C00000000F80000000000000033300000004F
:101A3C0000100C06100C0600000000000000000056
:101A4C0040C07840C0784000043F04043F040400C8
:101A5C00007088FC08300000001820FF211E0000D8
:101A6C00F008F000E018000000211C031E211E00ED
:101A7C0000F00888700000001E2123241927211073
:101A8C0010160E0000000000000000000000000016
:101A9C00000000E0180402000000000718204000BD
:101AAC0000020418E00000000040201807000000AD
:101ABC00404080F0804040000202010F0102020011
:101ACC00000000F0000000000101011F01010100F5
:101ADC00000000000000000080B07000000000005A
:101AEC0000000000000000000001010101010101E3
:101AFC00000000000000000000303000000000007A
:101B0C00000000008060180400601806010000004E
:101B1C0000E010080810E000000F102020100F004B
:101B2C00001010F8000000000020203F20200000D2
:101B3C00007008080888700000302824222130002A
:101B4C0000300888884830000018202020110E0032
:101B5C000000C02010F8000000070424243F2400DB
:101B6C0000F80888880808000019212020110E00B0
:101B7C0000E0108888180000000F112020110E00C2
:101B8C0000380808C83808000000003F00000000BA
:101B9C000070880808887000001C222121221C007B
:101BAC0000E010080810E0000000312222110F00A4
:101BBC00000000C0C0000000000000303000000039
:101BCC0000000080000000000000806000000000A9
:101BDC0000008040201008000001020408102000C2
:101BEC00404040404040400004040404040404000D
:101BFC0000081020408000000020100804020100A2
:101C0C00007048080808F0000000003036010000A1
:101C1C00C030C828E810E0000718272423140B0054
:101C2C000000C038E0000000203C230202273820CE
:101C3C0008F8888888700000203F202020110E00B2
:101C4C00C0300808080838000718202020100800A9
:101C5C0008F808080810E000203F202020100F0092
:101C6C0008F88888E8081000203F2020232018005E
:101C7C0008F88888E8081000203F200003000000C6
:101C8C00C03008080838000007182020221E020067
:101C9C0008F808000008F808203F210101213F2026
:101CAC00000808F8080800000020203F2020000051
:101CBC0000000808F8080800C08080807F00000041
:101CCC0008F888C028180800203F2001263820007A
:101CDC0008F8080000000000203F202020203000E1
:101CEC0008F8F800F8F80800203F003F003F2000FB
:101CFC0008F830C00008F808203F200007183F0003
:101D0C00E01008080810E0000F10202020100F0031
:101D1C0008F808080808F000203F21010101000024
:101D2C00E01008080810E0000F18242438504F0069
:101D3C0008F8888888887000203F2000030C302029
:101D4C0000708808080838000038202121221C0067
:101D5C00180808F8080818000000203F20000000B0
:101D6C0008F808000008F808001F202020201F0099
:101D7C000878880000C83808000007380E010000F9
:101D8C00F80800F80008F800033C0700073C0300C3
:101D9C00081868808068180820302C03032C302029
:101DAC000838C800C83808000000203F2000000098
:101DBC0010080808C83808002038262120201800F0
:101DCC00000000FE020202000000007F40404000C4
:101DDC00000C30C000000000000000010638C000FC
:101DEC0000020202FE000000004040407F000000A4
:101DFC0000000402020204000000000000000000C9
:101E0C0000000000000000008080808080808080C6
:101E1C0000020204000000000000000000000000AE
:101E2C0000008080808000000019242222223F20A4
:101E3C0008F8008080000000003F112020110E00E7
:101E4C000000008080800000000E11202020110076
:101E5C00000000808088F800000E112020103F2028
:101E6C000000808080800000001F222222221300AC
:101E7C00008080F0888888180020203F20200000F7
:101E8C000000808080808000006B949494936000AC
:101E9C0008F8008080800000203F210000203F20B7
:101EAC0000809898000000000020203F20200000B7
:101EBC00000000809898000000C08080807F0000A7
:101ECC0008F8000080808000203F24022D30200084
:101EDC00000808F8000000000020203F202000002F
:101EEC008080808080808000203F20003F20003F49
:101EFC008080008080800000203F210000203F2057
:101F0C000000808080800000001F202020201F0007
:101F1C00808000808000000080FFA12020110E0036
:101F2C000000008080808000000E112020A0FF8027
:101F3C00808080008080800020203F2120000100D4
:101F4C000000808080808000003324242424190029
:101F5C00008080E0808000000000001F2020000036
:101F6C008080000000808000001F202020103F2077
:101F7C00808080000080808000010E300806010007
:101F8C0080800080008080800F300C030C300F00AC
:101F9C0000808000808080000020312E0E312000D7
:101FAC00808080000080808080818E701806010007
:101FBC0000808080808080000021302C2221300025
:101FCC0000000000807C020200000000003F404046
:101FDC0000000000FF00000000000000FF000000F7
:101FEC000002027C800000000040403F0000000026
:101FFC0000060101020204040000000000000000C1
:10200C000DC0A0E1F8DF2DE904B04CE228D04BE282
:10201C00F06F9DE81EFF2FE10DC0A0E1F8DF2DE968
:10202C0004B04CE228D04BE2F06F9DE81EFF2FE18C
:08203C00781900084C010008AE
:042044000C01000883
:10204800B50200080008014001000101000000007D
:1020580000080140040001010000000000080140E0
:1020680010000101000000000008014040000101CB
:1020780000000000000C0140010001010000000008
:10208800000C01400004010100000000AC00002029
:040000050800180DCA
:00000001FF
